{
  "_format": "hh-sol-artifact-1",
  "contractName": "HelpChain",
  "sourceName": "contracts/HelpChain.sol",
  "abi": [
    {
      "anonymous": false,
      "inputs": [
        {
          "indexed": true,
          "internalType": "uint256",
          "name": "campaignId",
          "type": "uint256"
        },
        {
          "indexed": true,
          "internalType": "address",
          "name": "volunteer",
          "type": "address"
        },
        {
          "indexed": false,
          "internalType": "uint256",
          "name": "timestamp",
          "type": "uint256"
        }
      ],
      "name": "AidDeliveryVerified",
      "type": "event"
    },
    {
      "anonymous": false,
      "inputs": [
        {
          "indexed": true,
          "internalType": "uint256",
          "name": "campaignId",
          "type": "uint256"
        },
        {
          "indexed": true,
          "internalType": "address",
          "name": "ngo",
          "type": "address"
        },
        {
          "indexed": false,
          "internalType": "string",
          "name": "title",
          "type": "string"
        },
        {
          "indexed": false,
          "internalType": "uint256",
          "name": "targetAmount",
          "type": "uint256"
        }
      ],
      "name": "CampaignCreated",
      "type": "event"
    },
    {
      "anonymous": false,
      "inputs": [
        {
          "indexed": true,
          "internalType": "uint256",
          "name": "campaignId",
          "type": "uint256"
        },
        {
          "indexed": true,
          "internalType": "address",
          "name": "donor",
          "type": "address"
        },
        {
          "indexed": false,
          "internalType": "uint256",
          "name": "amount",
          "type": "uint256"
        },
        {
          "indexed": true,
          "internalType": "bytes32",
          "name": "txnHashPlaceholder",
          "type": "bytes32"
        }
      ],
      "name": "DonationReceived",
      "type": "event"
    },
    {
      "inputs": [
        {
          "internalType": "uint256",
          "name": "_campaignId",
          "type": "uint256"
        },
        {
          "internalType": "address",
          "name": "_volunteer",
          "type": "address"
        }
      ],
      "name": "assignVolunteer",
      "outputs": [],
      "stateMutability": "nonpayable",
      "type": "function"
    },
    {
      "inputs": [
        {
          "internalType": "uint256",
          "name": "",
          "type": "uint256"
        },
        {
          "internalType": "uint256",
          "name": "",
          "type": "uint256"
        }
      ],
      "name": "campaignDonations",
      "outputs": [
        {
          "internalType": "address",
          "name": "donor",
          "type": "address"
        },
        {
          "internalType": "uint256",
          "name": "amount",
          "type": "uint256"
        },
        {
          "internalType": "uint256",
          "name": "timestamp",
          "type": "uint256"
        }
      ],
      "stateMutability": "view",
      "type": "function"
    },
    {
      "inputs": [
        {
          "internalType": "uint256",
          "name": "",
          "type": "uint256"
        }
      ],
      "name": "campaigns",
      "outputs": [
        {
          "internalType": "address payable",
          "name": "ngo",
          "type": "address"
        },
        {
          "internalType": "string",
          "name": "title",
          "type": "string"
        },
        {
          "internalType": "uint256",
          "name": "targetAmount",
          "type": "uint256"
        },
        {
          "internalType": "uint256",
          "name": "raisedAmount",
          "type": "uint256"
        },
        {
          "internalType": "bool",
          "name": "isVerified",
          "type": "bool"
        },
        {
          "internalType": "address",
          "name": "assignedVolunteer",
          "type": "address"
        },
        {
          "internalType": "bool",
          "name": "exists",
          "type": "bool"
        }
      ],
      "stateMutability": "view",
      "type": "function"
    },
    {
      "inputs": [
        {
          "internalType": "string",
          "name": "_title",
          "type": "string"
        },
        {
          "internalType": "uint256",
          "name": "_targetAmount",
          "type": "uint256"
        }
      ],
      "name": "createCampaign",
      "outputs": [
        {
          "internalType": "uint256",
          "name": "",
          "type": "uint256"
        }
      ],
      "stateMutability": "nonpayable",
      "type": "function"
    },
    {
      "inputs": [
        {
          "internalType": "uint256",
          "name": "_campaignId",
          "type": "uint256"
        }
      ],
      "name": "donateToCampaign",
      "outputs": [],
      "stateMutability": "payable",
      "type": "function"
    },
    {
      "inputs": [
        {
          "internalType": "uint256",
          "name": "_campaignId",
          "type": "uint256"
        }
      ],
      "name": "getCampaignDetails",
      "outputs": [
        {
          "internalType": "address",
          "name": "ngo",
          "type": "address"
        },
        {
          "internalType": "string",
          "name": "title",
          "type": "string"
        },
        {
          "internalType": "uint256",
          "name": "target",
          "type": "uint256"
        },
        {
          "internalType": "uint256",
          "name": "raised",
          "type": "uint256"
        },
        {
          "internalType": "bool",
          "name": "isVerified",
          "type": "bool"
        },
        {
          "internalType": "address",
          "name": "volunteer",
          "type": "address"
        }
      ],
      "stateMutability": "view",
      "type": "function"
    },
    {
      "inputs": [],
      "name": "nextCampaignId",
      "outputs": [
        {
          "internalType": "uint256",
          "name": "",
          "type": "uint256"
        }
      ],
      "stateMutability": "view",
      "type": "function"
    },
    {
      "inputs": [
        {
          "internalType": "uint256",
          "name": "_campaignId",
          "type": "uint256"
        }
      ],
      "name": "verifyDelivery",
      "outputs": [],
      "stateMutability": "nonpayable",
      "type": "function"
    }
  ],
  "bytecode": "0x6080604052600060015534801561001557600080fd5b506118b1806100256000396000f3fe60806040526004361061007b5760003560e01c806370879ff71161004e57806370879ff7146101315780637903a75614610170578063d993de621461019b578063f102a67c146101dd5761007b565b806301b3fd8114610080578063141961bc146100a957806323675c47146100ec57806342a4fda814610115575b600080fd5b34801561008c57600080fd5b506100a760048036038101906100a29190610d4a565b61021a565b005b3480156100b557600080fd5b506100d060048036038101906100cb9190610d8a565b610352565b6040516100e39796959493929190610ea1565b60405180910390f35b3480156100f857600080fd5b50610113600480360381019061010e9190610d8a565b610476565b005b61012f600480360381019061012a9190610d8a565b610664565b005b34801561013d57600080fd5b5061015860048036038101906101539190610f17565b61086a565b60405161016793929190610f57565b60405180910390f35b34801561017c57600080fd5b506101856108d1565b6040516101929190610f8e565b60405180910390f35b3480156101a757600080fd5b506101c260048036038101906101bd9190610d8a565b6108d7565b6040516101d496959493929190610fa9565b60405180910390f35b3480156101e957600080fd5b5061020460048036038101906101ff9190611146565b610a74565b6040516102119190610f8e565b60405180910390f35b816001548110801561024b575060008082815260200190815260200160002060040160159054906101000a900460ff165b61028a576040517f08c379a0000000000000000000000000000000000000000000000000000000008152600401610281906111ee565b60405180910390fd5b600073ffffffffffffffffffffffffffffffffffffffff168273ffffffffffffffffffffffffffffffffffffffff16036102f9576040517f08c379a00000000000000000000000000000000000000000000000000000000081526004016102f090611280565b60405180910390fd5b8160008085815260200190815260200160002060040160016101000a81548173ffffffffffffffffffffffffffffffffffffffff021916908373ffffffffffffffffffffffffffffffffffffffff160217905550505050565b60006020528060005260406000206000915090508060000160009054906101000a900473ffffffffffffffffffffffffffffffffffffffff169080600101805461039b906112cf565b80601f01602080910402602001604051908101604052809291908181526020018280546103c7906112cf565b80156104145780601f106103e957610100808354040283529160200191610414565b820191906000526020600020905b8154815290600101906020018083116103f757829003601f168201915b5050505050908060020154908060030154908060040160009054906101000a900460ff16908060040160019054906101000a900473ffffffffffffffffffffffffffffffffffffffff16908060040160159054906101000a900460ff16905087565b8060008082815260200190815260200160002060040160019054906101000a900473ffffffffffffffffffffffffffffffffffffffff1673ffffffffffffffffffffffffffffffffffffffff163373ffffffffffffffffffffffffffffffffffffffff161461051a576040517f08c379a000000000000000000000000000000000000000000000000000000000815260040161051190611372565b60405180910390fd5b816001548110801561054b575060008082815260200190815260200160002060040160159054906101000a900460ff165b61058a576040517f08c379a0000000000000000000000000000000000000000000000000000000008152600401610581906111ee565b60405180910390fd5b600080600085815260200190815260200160002090508060040160009054906101000a900460ff16156105f2576040517f08c379a00000000000000000000000000000000000000000000000000000000081526004016105e9906113de565b60405180910390fd5b60018160040160006101000a81548160ff0219169083151502179055503373ffffffffffffffffffffffffffffffffffffffff16847fe4d1dbac02933506b57716356956ced6baaeea563d1186d10cea28d2c92053b9426040516106569190610f8e565b60405180910390a350505050565b8060015481108015610695575060008082815260200190815260200160002060040160159054906101000a900460ff165b6106d4576040517f08c379a00000000000000000000000000000000000000000000000000000000081526004016106cb906111ee565b60405180910390fd5b60003411610717576040517f08c379a000000000000000000000000000000000000000000000000000000000815260040161070e90611470565b60405180910390fd5b600080600084815260200190815260200160002090503481600301600082825461074191906114bf565b925050819055506002600084815260200190815260200160002060405180606001604052803373ffffffffffffffffffffffffffffffffffffffff16815260200134815260200142815250908060018154018082558091505060019003906000526020600020906003020160009091909190915060008201518160000160006101000a81548173ffffffffffffffffffffffffffffffffffffffff021916908373ffffffffffffffffffffffffffffffffffffffff160217905550602082015181600101556040820151816002015550506000801b3373ffffffffffffffffffffffffffffffffffffffff16847fc5b4df142a4930e9f5f4ae999caff9bc2eee2deb14046ac4bff24d1c730962ea3460405161085d9190610f8e565b60405180910390a4505050565b6002602052816000526040600020818154811061088657600080fd5b9060005260206000209060030201600091509150508060000160009054906101000a900473ffffffffffffffffffffffffffffffffffffffff16908060010154908060020154905083565b60015481565b600060606000806000808660015481108015610912575060008082815260200190815260200160002060040160159054906101000a900460ff165b610951576040517f08c379a0000000000000000000000000000000000000000000000000000000008152600401610948906111ee565b60405180910390fd5b60008060008a815260200190815260200160002090508060000160009054906101000a900473ffffffffffffffffffffffffffffffffffffffff1681600101826002015483600301548460040160009054906101000a900460ff168560040160019054906101000a900473ffffffffffffffffffffffffffffffffffffffff168480546109dd906112cf565b80601f0160208091040260200160405190810160405280929190818152602001828054610a09906112cf565b8015610a565780601f10610a2b57610100808354040283529160200191610a56565b820191906000526020600020905b815481529060010190602001808311610a3957829003601f168201915b50505050509450975097509750975097509750505091939550919395565b6000808211610ab8576040517f08c379a0000000000000000000000000000000000000000000000000000000008152600401610aaf90611565565b60405180910390fd5b600060016000815480929190610acd90611585565b9190505590506040518060e001604052803373ffffffffffffffffffffffffffffffffffffffff16815260200185815260200184815260200160008152602001600015158152602001600073ffffffffffffffffffffffffffffffffffffffff1681526020016001151581525060008083815260200190815260200160002060008201518160000160006101000a81548173ffffffffffffffffffffffffffffffffffffffff021916908373ffffffffffffffffffffffffffffffffffffffff1602179055506020820151816001019081610ba89190611779565b50604082015181600201556060820151816003015560808201518160040160006101000a81548160ff02191690831515021790555060a08201518160040160016101000a81548173ffffffffffffffffffffffffffffffffffffffff021916908373ffffffffffffffffffffffffffffffffffffffff16021790555060c08201518160040160156101000a81548160ff0219169083151502179055509050503373ffffffffffffffffffffffffffffffffffffffff16817f825fb10f7650ed27414d6f86acdf7d5946927d9b25001f045f1a2435deec02fe8686604051610c9092919061184b565b60405180910390a38091505092915050565b6000604051905090565b600080fd5b600080fd5b6000819050919050565b610cc981610cb6565b8114610cd457600080fd5b50565b600081359050610ce681610cc0565b92915050565b600073ffffffffffffffffffffffffffffffffffffffff82169050919050565b6000610d1782610cec565b9050919050565b610d2781610d0c565b8114610d3257600080fd5b50565b600081359050610d4481610d1e565b92915050565b60008060408385031215610d6157610d60610cac565b5b6000610d6f85828601610cd7565b9250506020610d8085828601610d35565b9150509250929050565b600060208284031215610da057610d9f610cac565b5b6000610dae84828501610cd7565b91505092915050565b6000610dc282610cec565b9050919050565b610dd281610db7565b82525050565b600081519050919050565b600082825260208201905092915050565b60005b83811015610e12578082015181840152602081019050610df7565b60008484015250505050565b6000601f19601f8301169050919050565b6000610e3a82610dd8565b610e448185610de3565b9350610e54818560208601610df4565b610e5d81610e1e565b840191505092915050565b610e7181610cb6565b82525050565b60008115159050919050565b610e8c81610e77565b82525050565b610e9b81610d0c565b82525050565b600060e082019050610eb6600083018a610dc9565b8181036020830152610ec88189610e2f565b9050610ed76040830188610e68565b610ee46060830187610e68565b610ef16080830186610e83565b610efe60a0830185610e92565b610f0b60c0830184610e83565b98975050505050505050565b60008060408385031215610f2e57610f2d610cac565b5b6000610f3c85828601610cd7565b9250506020610f4d85828601610cd7565b9150509250929050565b6000606082019050610f6c6000830186610e92565b610f796020830185610e68565b610f866040830184610e68565b949350505050565b6000602082019050610fa36000830184610e68565b92915050565b600060c082019050610fbe6000830189610e92565b8181036020830152610fd08188610e2f565b9050610fdf6040830187610e68565b610fec6060830186610e68565b610ff96080830185610e83565b61100660a0830184610e92565b979650505050505050565b600080fd5b600080fd5b7f4e487b7100000000000000000000000000000000000000000000000000000000600052604160045260246000fd5b61105382610e1e565b810181811067ffffffffffffffff821117156110725761107161101b565b5b80604052505050565b6000611085610ca2565b9050611091828261104a565b919050565b600067ffffffffffffffff8211156110b1576110b061101b565b5b6110ba82610e1e565b9050602081019050919050565b82818337600083830152505050565b60006110e96110e484611096565b61107b565b90508281526020810184848401111561110557611104611016565b5b6111108482856110c7565b509392505050565b600082601f83011261112d5761112c611011565b5b813561113d8482602086016110d6565b91505092915050565b6000806040838503121561115d5761115c610cac565b5b600083013567ffffffffffffffff81111561117b5761117a610cb1565b5b61118785828601611118565b925050602061119885828601610cd7565b9150509250929050565b7f43616d706169676e20646f6573206e6f742065786973742e0000000000000000600082015250565b60006111d8601883610de3565b91506111e3826111a2565b602082019050919050565b60006020820190508181036000830152611207816111cb565b9050919050565b7f566f6c756e7465657220616464726573732063616e6e6f74206265207a65726f60008201527f2e00000000000000000000000000000000000000000000000000000000000000602082015250565b600061126a602183610de3565b91506112758261120e565b604082019050919050565b600060208201905081810360008301526112998161125d565b9050919050565b7f4e487b7100000000000000000000000000000000000000000000000000000000600052602260045260246000fd5b600060028204905060018216806112e757607f821691505b6020821081036112fa576112f96112a0565b5b50919050565b7f43616c6c6572206973206e6f74207468652061737369676e656420566f6c756e60008201527f7465657220666f7220746869732063616d706169676e2e000000000000000000602082015250565b600061135c603783610de3565b915061136782611300565b604082019050919050565b6000602082019050818103600083015261138b8161134f565b9050919050565b7f4169642064656c697665727920616c72656164792076657269666965642e0000600082015250565b60006113c8601e83610de3565b91506113d382611392565b602082019050919050565b600060208201905081810360008301526113f7816113bb565b9050919050565b7f446f6e6174696f6e20616d6f756e74206d75737420626520677265617465722060008201527f7468616e207a65726f2e00000000000000000000000000000000000000000000602082015250565b600061145a602a83610de3565b9150611465826113fe565b604082019050919050565b600060208201905081810360008301526114898161144d565b9050919050565b7f4e487b7100000000000000000000000000000000000000000000000000000000600052601160045260246000fd5b60006114ca82610cb6565b91506114d583610cb6565b92508282019050808211156114ed576114ec611490565b5b92915050565b7f54617267657420616d6f756e74206d757374206265206772656174657220746860008201527f616e207a65726f2e000000000000000000000000000000000000000000000000602082015250565b600061154f602883610de3565b915061155a826114f3565b604082019050919050565b6000602082019050818103600083015261157e81611542565b9050919050565b600061159082610cb6565b91507fffffffffffffffffffffffffffffffffffffffffffffffffffffffffffffffff82036115c2576115c1611490565b5b600182019050919050565b60008190508160005260206000209050919050565b60006020601f8301049050919050565b600082821b905092915050565b60006008830261162f7fffffffffffffffffffffffffffffffffffffffffffffffffffffffffffffffff826115f2565b61163986836115f2565b95508019841693508086168417925050509392505050565b6000819050919050565b600061167661167161166c84610cb6565b611651565b610cb6565b9050919050565b6000819050919050565b6116908361165b565b6116a461169c8261167d565b8484546115ff565b825550505050565b600090565b6116b96116ac565b6116c4818484611687565b505050565b5b818110156116e8576116dd6000826116b1565b6001810190506116ca565b5050565b601f82111561172d576116fe816115cd565b611707846115e2565b81016020851015611716578190505b61172a611722856115e2565b8301826116c9565b50505b505050565b600082821c905092915050565b600061175060001984600802611732565b1980831691505092915050565b6000611769838361173f565b9150826002028217905092915050565b61178282610dd8565b67ffffffffffffffff81111561179b5761179a61101b565b5b6117a582546112cf565b6117b08282856116ec565b600060209050601f8311600181146117e357600084156117d1578287015190505b6117db858261175d565b865550611843565b601f1984166117f1866115cd565b60005b82811015611819578489015182556001820191506020850194506020810190506117f4565b868310156118365784890151611832601f89168261173f565b8355505b6001600288020188555050505b505050505050565b600060408201905081810360008301526118658185610e2f565b90506118746020830184610e68565b939250505056fea2646970667358221220081439215d86588f88485db7e1a848aa106251a54cf8197c0142e85f2402c2ee64736f6c63430008140033",
  "linkReferences": {},
  "deployedLinkReferences": {}
}